:020000040000fa
:10000000f0ff0320d9ed01001bb10100ffc1010089
:1000100077cc01003fd40100a7e5010000000000fb
:100020000000000000000000000000005179020004
:1000300097c5010000000000c1190200996c020080
:1000400033a3010033a3010033a3010033a3010054
:1000500033a3010033a3010033a3010033a3010044
:1000600033a3010033a3010033a3010033a3010034
:1000700033a3010033a3010033a3010033a3010024
:1000800033a3010033a3010033a3010033a3010014
:1000900033a3010033a3010033a3010033a3010004
:1000a00033a3010033a3010033a3010033a30100f4
:1000b00033a3010033a3010033a3010033a30100e4
:1000c00033a3010033a3010033a3010033a30100d4
:1000d00033a3010033a3010033a3010033a30100c4
:1000e00033a3010033a30100000000000000000062
:1000f0000000000033a3010033a3010033a301007b
:1001000033a3010033a301000d4001000d400100a5
:100110000d4001000d40010033a3010033a3010095
:1001200033a3010033a3010033a3010033a3010073
:1001300033a3010033a3010033a3010033a3010063
:1001400033a3010033a3010033a3010033a3010053
:1001500033a3010033a3010033a3010033a3010043
:1001600033a3010033a3010033a3010033a3010033
:1001700033a3010033a301000000000000000000d1
:1001800033a3010033a3010033a3010033a3010013
:100190003161020033a3010033a3010033a3010046
:1001a00033a3010033a3010033a3010033a30100f3
:1001b00033a3010033a3010033a3010033a30100e3
:1001c00033a3010033a3010033a3010033a30100d3
:1001d00033a3010033a3010033a3010033a30100c3
:1001e00033a3010033a3010033a30100916b02008c
:1001f00033a3010033a3010033a3010033a30100a3
:1002000033a3010033a3010033a3010033a3010092
:1002100033a3010033a3010033a3010033a3010082
:1002200033a3010033a3010033a3010033a3010072
:1002300033a3010033a3010033a3010033a3010062
:1002400033a3010033a3010033a3010033a3010052
:1002500033a3010033a3010033a3010033a3010042
:0402600033a30100c3
:020000040000fa
:10026400f8b500bff8bc08bc9e46704701450200c3
:10027400f8b500bff8bc08bc9e467047dd440200d8
:020000040000fa
:08028400a8fc000001000000cd
:020000040000fa
:10028c006d69696d206f70656e3a206661696c6589
:10029c0064210d0a0000000072656164000000001a
:1002ac00777269746500000064756d700000000061
:1002bc006d69696d3a20416e6f74686572206f705c
:1002cc0065726174696f6e206f6e676f696e672ef1
:1002dc00205265747279210d0a0000006d69696df8
:1002ec002025733a20616e206572726f72206f63e5
:1002fc006375727265643a202564210d0a00000052
:10030c0055736167653a206d69696d203c61646461
:10031c0020613e202d205365747320746865205035
:10032c00485920616464726573730d0a0000000003
:10033c0055736167653a206d69696d203c73746112
:10034c00727420723e203c656e6420723e202d201b
:10035c0053657473207468652073746172742061c2
:10036c006e6420656e6420726567697374657220b3
:10037c00666f7220612064756d70206f700d0a00bd
:10038c0055736167653a206d69696d203c776461ce
:10039c00746120783e202d20536574732074686539
:1003ac00206461746120666f7220612077726974b9
:1003bc0065206f700d0a000055736167653a206dfa
:1003cc0069696d203c72656164207269783e202dec
:1003dc00205265616473207265676973746572205d
:1003ec007269780d0a00000055736167653a206ddb
:1003fc0069696d203c7772697465207269783e205a
:10040c002d20577269746573207265676973746502
:10041c007220726978207769746820646174610d48
:10042c000a00000055736167653a206d69696d209b
:10043c003c64756d703e202d2044756d7073206189
:10044c006c6c20726567697374657273205b725390
:10045c00746172742c2072456e645d0d0a0000008c
:10046c0055736167653a206d69696d203c736574dd
:10047c0075703e202d20506572666f726d732074fe
:10048c006865205048592073657475700d0a00001a
:10049c0073657475700000006d69696d2073657407
:1004ac007570206661696c65643a202564210d0abb
:1004bc00000000006d69696d2073657475702073a0
:1004cc007563636573733a25640d0a006164640097
:1004dc006d69696d3a205365742041646420746fb2
:1004ec003a2025640d0a00007374617274000000d8
:1004fc006d69696d3a205365742053746172742070
:10050c0052656720746f3a2025640d0a00000000c4
:10051c00656e64006d69696d3a2053657420456e93
:10052c00642052656720746f3a2025640d0a000020
:10053c0077646174610000006d69696d3a205365e0
:10054c0074205772204461746120746f3a203078a3
:10055c002534780d0a0000006d69696d3a20556ede
:10056c006b6e6f776e206f7074696f6e0d0a000082
:10057c0055736167653a206d6163696e666f200d16
:10058c000a00000045783a206d6163696e666f2041
:10059c000d0a0000496e746572666163653a202528
:1005ac007320447269766572205374617469737434
:1005bc006963730d0a0000000d0a205265636569ba
:1005cc00766520537461746973746963730d0a00e2
:1005dc0009206e52784f6b5061636b6574733a20cf
:1005ec0025640d0a09206e527850656e644275665a
:1005fc00666572733a2025640d0a09206e52785391
:10060c0063686564427566666572733a2025640d8d
:10061c000a00000009206e52784572726f725061a8
:10062c00636b6574733a2025640d0a09206e527849
:10063c00467261676d656e744572726f72733a20a3
:10064c0025640d0a09206e5278427566664e6f74e9
:10065c00417661696c61626c653a2025640d0a0013
:10066c000d0a205472616e736d6974205374617439
:10067c006973746963730d0a0000000009206e54dd
:10068c00784f6b5061636b6574733a2025640d0a67
:10069c0009206e547850656e644275666665727397
:1006ac003a2025640d0a09206e54784572726f72d7
:1006bc005061636b6574733a2025640d0a09206ed2
:1006cc005478517565756546756c6c3a2025640dca
:1006dc000a0d0a00096e6f7420737570706f727456
:1006ec0065640d0a00000000496e746572666163f2
:1006fc00653a2025732048617264776172652052d7
:10070c0065676973746572205374617475730d0a2f
:10071c0000000000092025733a20307825780d0a56
:10072c000000000064697361626c65640000000085
:10073c0064697361626c6500656e61626c6564000e
:10074c00656e61626c65000055736167653a2025c2
:10075c0073203c696e746572666163653e203c6f04
:10076c006e2f6f66663e200d0a00000045783a2019
:10077c002573205049433332494e54206f6e200d5f
:10078c000a000000556e6b6e6f776e20696e746593
:10079c0072666163650d0a006f6e00006f6666001d
:1007ac00556e6b6e6f776e206f7074696f6e0d0a7d
:1007bc000000000025732025730d0a004661696c4a
:1007cc00656420746f2025732025730d0a000000ca
:1007dc00556e6b6e6f776e207365727669636520ec
:1007ec0025730d0a000000006e6f6e65000000009e
:1007fc00c01a00000100000080150000020000007b
:10080c00a407000003000000a8070000030000007c
:10081c00c41a00000400000055736167653a206437
:10082c006e7363203c64656c2f696e666f2f6f6e00
:10083c002f6f66662f6c6f6f6b75703e200d0a0004
:10084c0055736167653a202573203c6f6e2f6f6678
:10085c00663e203c696e746572666163653e203c41
:10086c007374726963742f707265663e2f3c636c8f
:10087c006561723e200d0a0045783a202573206f81
:10088c006e20657468300d0a000000007374726984
:10089c00637400007072656600000000636c656133
:1008ac007200000055736167653a20646e736320b3
:1008bc006c6f6f6b7570203c747970653e203c6872
:1008cc006f73744e616d653e200d0a0048656c7047
:1008dc003a203c686f73744e616d653e2855524cde
:1008ec0029202d206c6f6f6b20757020666f722025
:1008fc00686f73746e616d650d0a000048656c70ed
:10090c003a203c747970653e203a2061206f722049
:10091c004120666f722049507634206164647265a0
:10092c007373206c6f6f6b75700d0a0048656c707b
:10093c003a203c747970653e203a206161616120f7
:10094c006f72204141414120666f722049507636ca
:10095c002061646472657373206c6f6f6b75700dbe
:10096c000a00000048656c703a203c747970653e52
:10097c00203a20616e7920666f7220626f74682055
:10098c004950763420616e6420495076362061647b
:10099c006472657373206c6f6f6b75700d0a000059
:1009ac00646e7363206c6f6f6b75703a20636f6d40
:1009bc006d616e6420696e2070726f6772657373ff
:1009cc002e205265747279206c617465722e0d0a3a
:1009dc000000000041000000610000004141414165
:1009ec00000000006161616100000000414e59008f
:1009fc00616e7900646e7363206c6f6f6b75703a07
:100a0c00205b25735d204c6f6f6b75702054797073
:100a1c0065206e6f7420737570706f727465642ec0
:100a2c000d0a0000646e7363206c6f6f6b75703a07
:100a3c0020486f7374206e616d6520746f6f206c2d
:100a4c006f6e672e2052657472792e0d0a000000ad
:100a5c00646e7363206c6f6f6b75703a2072657384
:100a6c006f6c76696e6720686f73743a20257320fb
:100a7c00666f7220747970653a2573200d0a000038
:100a8c0055736167653a20646e73632064656c20ee
:100a9c003c686f73744e616d653e7c616c6c200daf
:100aac000a00000048656c703a203c686f73744e05
:100abc00616d653e2855524c29202d2052656d6f75
:100acc0076652074686520656e747279206966207d
:100adc00657869737473200d0a00000048656c70aa
:100aec003a20616c6c202d2052656d6f766520610b
:100afc006c6c20746865207265736f6c766564200d
:100b0c00656e747279200d0a00000000616c6c0037
:100b1c005b25735d206e6f742070617274206f663c
:100b2c002074686520444e532043616368652065da
:100b3c006e747279200d0a00496e636f6d706c656e
:100b4c00746520636f6d6d616e64200d0a0000008a
:100b5c0055736167653a20646e736320696e666fc6
:100b6c00200d0a0048656c703a20646973706c61e2
:100b7c00792074686520444e532063616368652056
:100b8c00656e7472792064657461696c73200d0aea
:100b9c0000000000444e5320436c69656e7420695c
:100bac007320646f776e210d0a000000444e5320b1
:100bbc00436c69656e74204946202d20537472690c
:100bcc0063743a2025732c205072656665727265c9
:100bdc00643a2025730d0a00444e5320436c69651a
:100bec006e74202d2074696d653a2025642c20705c
:100bfc00656e64696e673a2025642c206375727289
:100c0c00656e743a2025642c20746f74616c3a20e4
:100c1c0025640d0a00000000486f73746e616d65e9
:100c2c00203d202573200d0a54696d656f75742065
:100c3c003d202564200d0a0049507634203d257353
:100c4c000d0a000049507636203d2025730d0a0010
:100c5c002d2d2d2d2d2d2d2d2d2d2d2d2d2d2d2db8
:100c6c002d2d2d2d2d2d2d2d2d2d2d2d2d2d2d2da8
:100c7c002d2d2d2d2d2d2d2d2d2d2d2d2d2d2d2d98
:100c8c002d2d2d2d0d0a00004e6f20444e53204368
:100c9c006c69656e7420436163686520656e74725f
:100cac00696573200d0a0000496e76616c696420d9
:100cbc00496e70757420436f6d6d616e64203a5b84
:100ccc00202573205d200d0a0000000050696e671e
:100cdc003a20646f6e652e2053656e742025642057
:100cec0072657175657374732c20726563656976b2
:100cfc006564202564207265706c6965732e0d0a1d
:100d0c000000000050696e672055736167653a20da
:100d1c0070696e67203c73746f703e2f3c6e616d12
:100d2c00652f616464726573733e203c6920696e43
:100d3c00746572666163653e203c6e206e50696e10
:100d4c0067733e203c74206d73506572696f643e0e
:100d5c00203c732073697a653e0d0a0073746f70c2
:100d6c000000000050696e673a20636f6d6d616e14
:100d7c006420696e2070726f67726573732e2052d7
:100d8c0065747279206c617465722e0d0a00000016
:100d9c0050696e673a20486f7374206e616d6520e0
:100dac00746f6f206c6f6e672e2052657472792e83
:100dbc000d0a0000690000006e00000074000000c5
:100dcc007300000050696e673a20446174612073af
:100ddc00697a6520746f6f206269672e204d617887
:100dec003a2025642e2052657472790d0a00000099
:100dfc0050696e673a20556e6b6e6f776e2070611e
:100e0c0072616d657465720d0a00000050696e6741
:100e1c003a207265736f6c76696e6720686f7374b5
:100e2c003a2025730d0a0000556e6b6e6f776e209d
:100e3c006865617020747970652e205573653a2051
:100e4c005b312c2025645d0d0a0000004e6f20687c
:100e5c0065617020696e666f2065786973747320a4
:100e6c00666f7220747970653a202573210d0a0023
:100e7c004865617020747970653a2025732e20497d
:100e8c006e697469616c2063726561746564206855
:100e9c006561702073697a653a2025642042797403
:100eac0065730d0a00000000416c6c6f6361626c2d
:100ebc006520626c6f636b20686561702073697a62
:100ecc00653a2025642042797465730d0a00000090
:100edc00416c6c20617661696c61626c652068653f
:100eec0061702073697a653a2025642042797465b3
:100efc00732c20686967682077617465726d617204
:100f0c006b3a2025640d0a004c617374206865618e
:100f1c0070206572726f723a20307825780d0a0055
:100f2c004e6f20547261636520696e666f20657820
:100f3c00697374732e0d0a00537461636b207570a2
:100f4c00206661696c65640d0a000000537461636e
:100f5c006b207570207375636365656465640d0a39
:100f6c000000000055736167653a20737461636b10
:100f7c00203c75702f646f776e3e203c70726573e9
:100f8c00657276653e0d0a0045783a20737461638c
:100f9c006b20646f776e2070726573657276650d69
:100fac000a00000075700000537461636b20616c63
:100fbc007265616479207570210d0a005475726e2a
:100fcc0020537461636b20646f776e20616e6420b4
:100fdc007468656e207570210d0a0000526573747b
:100fec00617274696e672074686520737461636bd9
:100ffc00207769746820256420696e746572666157
:10100c0063652873290d0a00646f776e0000000079
:10101c00537461636b20646f776e3a2063616e6efc
:10102c006f7420676574206120737461636b206832
:10103c00616e646c650d0a00537461636b20646fa0
:10104c00776e207375636365656465640d0a0000d3
:10105c0055736167653a206966203c696e746572e8
:10106c00666163653e203c646f776e2f75703e2021
:10107c000d0a000045783a20696620504943333206
:10108c00494e5420646f776e200d0a00556e6b6ebe
:10109c006f776e20696e746572666163652073701c
:1010ac0065636966696564200d0a0000546869739c
:1010bc0020696e7465726661636520616c7265612e
:1010cc0064792075700d0a004f7065726174696fd8
:1010dc006e206661696c65642e204e6f20636f6ea6
:1010ec0066696775726174696f6e0d0a00000000a5
:1010fc0066756c6c000000005468697320696e742e
:10110c0065726661636520616c72656164792064e7
:10111c006f776e0d0a00000057726f6e672070615a
:10112c0072616d657465722073706563696669655b
:10113c0064200d0a000000004f7065726174696fc5
:10114c006e207375636365737366756c210d0a008d
:10115c004f7065726174696f6e206661696c65644d
:10116c00210d0a0055736167653a207365746d61d2
:10117c0063203c696e746572666163653e203c78e1
:10118c003a783a783a783a783a783e200d0a000064
:10119c0045783a207365746d61632050494333324e
:1011ac00494e542061613a62623a63633a64643a2c
:1011bc0065653a6666200d0a00000000617267766c
:1011cc005b325d3a2025730d0a000000496e766192
:1011dc006c6964204d4143206164647265737320b3
:1011ec00737472696e67200d0a00000053657420d9
:1011fc004d41432061646472657373206661696c50
:10120c0065640d0a000000005365742042494f5379
:10121c00204e616d65204f4b0d0a00005365742004
:10122c0042494f53204e616d65206661696c65645f
:10123c000d0a000055736167653a20736574626925
:10124c006f73203c696e746572666163653e203c09
:10125c00782e782e782e783e200d0a0045783a208c
:10126c0073657462696f73205049433332494e542d
:10127c00204d434850424f4152445f3239200d0ab1
:10128c0000000000536574206761746577617920f4
:10129c0061646472657373204f4b0d0a000000008b
:1012ac005365742067617465776179206164647239
:1012bc00657373206661696c65640d0a000000003b
:1012cc0055736167653a207365746777203c696e66
:1012dc00746572666163653e203c697076342f36a6
:1012ec0020616464726573733e203c76616c696442
:1012fc0054696d653e200d0a0000000045783a20c7
:10130c007365746777205049433332494e5420310a
:10131c0039322e3136382e302e31200d0a00000095
:10132c00496e76616c696420495020616464726511
:10133c00737320737472696e67200d0a00000000cd
:10134c005365742069702061646472657373204ff7
:10135c004b0d0a00536574206970206164647265da
:10136c007373206661696c65640d0a00557361675f
:10137c00653a207365746970203c696e7465726699
:10138c006163653e203c697076342f36206164645d
:10139c00726573733e203c697076346d61736b2f8c
:1013ac006970763620707265666978206c656e3e61
:1013bc000d0a000045783a20736574697020504915
:1013cc00433332494e54203139322e3136382e3097
:1013dc002e38203235352e3235352e3235352e30ed
:1013ec00200d0a004e6f207375636820696e74655a
:1013fc0072666163652069732075700d0a000000c8
:10140c00416e2061646472657373207365727669d2
:10141c00636520697320616c7265616479207275f3
:10142c006e6e696e672e2053746f70204448435063
:10143c002c205a434c4c2c206574632e2066697208
:10144c0073740d0a00000000496e76616c696420ab
:10145c004950206d61736b20737472696e67200d37
:10146c000a00000073756363657373006661696cd1
:10147c006564000055736167653a20736574646e2a
:10148c007320312f32203c696e746572666163651e
:10149c003e203c782e782e782e783e200d0a0000c7
:1014ac0045783a20736574646e73203120657468d6
:1014bc0030203235352e3235352e3235352e302022
:1014cc000d0a0000556e6b6e6f776e20444e5320e4
:1014dc00696e6465780d0a0053657420444e532080
:1014ec00256420616464726573732025730d0a0092
:1014fc006e6f7420676976656e0000004e6f6e65c6
:10150c00000000006661696c0000000055736167a3
:10151c00653a202573203c696e746572666163655b
:10152c003e203c6f6e2f6f66662f72656e65772f4f
:10153c00726571756573742f696e666f3e200d0a46
:10154c000000000072656e657700000072657175b1
:10155c006573740052657175657374206e6565648e
:10156c007320616e20495020616464726573730d41
:10157c000a000000696e666f00000000444843508a
:10158c00207374617475733a2025642028202564b7
:10159c00203d3d20426f756e64292c2074696d6569
:1015ac003a2025640d0a000044484350206c6561c4
:1015bc0073652073746172743a2025642c206475f1
:1015cc00726174696f6e3a202564730d0a00000015
:1015dc00444843502072656e65772074696d653a96
:1015ec002025642c20726562696e642074696d65b7
:1015fc003a2025640d0a000044484350206164647d
:10160c00726573733a2025730d0a000044484350e9
:10161c00207365727665723a2025730d0a000000fe
:10162c004448435020626f6f74206e616d653a20a0
:10163c0025730d0a00000000444843502054696d86
:10164c006520736572766572733a2025642c2025ab
:10165c00730d0a0044484350204e54502073657259
:10166c00766572733a2025642c2025730d0a0000d0
:10167c00444843503a206661696c656420746f205d
:10168c0067657420696e666f0d0a0000257320254e
:10169c00732025730d0a000073756363657373669d
:1016ac00756c00006661696c65642100736574007b
:1016bc006765740044656661756c7420696e746549
:1016cc007266616365207365742025730d0a0000d2
:1016dc0044656661756c7420696e746572666163cd
:1016ec00652069733a2025730d0a000055736167f4
:1016fc00653a206465666e6574207365742f676542
:10170c0074203c696e746572666163653e0d0a00f7
:10171c0045783a206465666e65742073657420653f
:10172c007468300d0a00000055500000444f574ead
:10173c000000000052656164790000004e6f742057
:10174c00526561647900000055736167653a206edb
:10175c006574696e666f0d0a0000000045783a20ca
:10176c006e6574696e666f0d0a0000002d2d2d2daf
:10177c002d2d2d2d2d2d20496e746572666163659e
:10178c00203c25732f25733e202d2d2d2d2d2d2df9
:10179c002d2d2d200d0a0000496e74657266616353
:1017ac006520697320646f776e0d0a00486f73743f
:1017bc00204e616d653a202573202d204e424e53ec
:1017cc002064697361626c6564200d0a000000007e
:1017dc004950763420416464726573733a202573e2
:1017ec000d0a00004d61736b3a2025730d0a000041
:1017fc00476174657761793a2025730d0a00000002
:10180c00444e53313a2025730d0a0000444e533296
:10181c003a2025730d0a00004d4143204164647247
:10182c006573733a2025730d0a00000064686370b9
:10183c002069732025730d0a000000004c696e6b43
:10184c002069732025730d0a000000005374617425
:10185c0075733a2025730d0a0000000064656661fb
:10186c00756c742049502061646472657373000058
:10187c002573206973204f4e0d0a00006468637055
:10188c000000000050696e673a2077726f6e672017
:10189c007265706c792072656365697665642e205b
:1018ac004d61736b3a2030782532780d0a000000b8
:1018bc0050696e673a207265706c795b25645d20a7
:1018cc0066726f6d2025733a2074696d65203d201a
:1018dc0025646d730d0a00005265616420526567c2
:1018ec0000000000577269746520526567000000a3
:1018fc0044756d70205265670000000050696e677a
:10190c003a20444e53206661696c75726520666f8f
:10191c00722025730d0a0000444e53204c6f6f6be0
:10192c0075703a20444e53206661696c757265205f
:10193c00666f722025732c206572723a2025640d17
:10194c000a000000444e53204c6f6f6b75703a20a8
:10195c00726571756573742074696d656f75742e1d
:10196c000d0a00004c6f6f6b757020416e737765bc
:10197c00723a0d0a2d2d2d2d2d2d2d2d2d2d2d2d7c
:10198c002d2d2d2d2d2d2d2d2d2d0d0a0000000072
:10199c004e6f204c6f6f6b757020656e7472792072
:1019ac00666f72205b25735d0d0a00005b25735d0d
:1019bc002041204950763420416464726573732051
:1019cc003a2025642e25642e25642e25640d0a00ec
:1019dc005b25735d204141414120495076362041c1
:1019ec00646472657373203a25730d0a000000005d
:1019fc004d69696d2025733a2025642c206164643f
:101a0c003a2025642c2076616c3a20307825347885
:101a1c000d0a00004d69696d202573206572726f87
:101a2c00723a2025640d0a003a20737461636b20ae
:101a3c00636f6d6d616e6473000000007463706998
:101a4c00700000004661696c656420746f206372dd
:101a5c006561746520544350495020436f6d6d612e
:101a6c006e64730d0a000000544350495020636f9c
:101a7c006d6d616e6473207461736b207265676940
:101a8c007374726174696f6e206661696c65640d44
:101a9c000a000000696e7465726e616c00000000d3
:101aac00706f6f6c0000000065787465726e616c0d
:101abc000000000064656c006c6f6f6b757000004b
:101acc006e6574696e666f003a20476574206e65aa
:101adc0074776f726b20696e666f726d6174696f6b
:101aec006e0000006465666e657400003a205365f4
:101afc00742f4765742064656661756c7420696e1b
:101b0c0074657266616365003a20444843502063f3
:101b1c006c69656e7420636f6d6d616e647300002b
:101b2c0064686370730000003a205475726e204430
:101b3c0048435020736572766572206f6e2f6f6606
:101b4c00660000007a636c6c000000003a2054754b
:101b5c00726e205a434c4c206f6e2f6f66660000dd
:101b6c00736574646e7300003a2053657420444ea0
:101b7c00532061646472657373000000736574694b
:101b8c00700000003a205365742049502061646451
:101b9c007265737320616e64206d61736b0000005d
:101bac0073657467770000003a20536574204761b1
:101bbc0074657761792061646472657373000000e9
:101bcc0073657462696f73003a2053657420686f93
:101bdc0073742773204e657442494f53206e616da8
:101bec00650000007365746d616300003a205365f5
:101bfc0074204d414320616464726573730000006e
:101c0c00696600003a204272696e6720616e206935
:101c1c006e746572666163652075702f646f776e84
:101c2c0000000000737461636b0000003a20537471
:101c3c0061636b207475726e206f6e2f6f66660019
:101c4c0068656170696e666f000000003a20436839
:101c5c0065636b20686561702073746174757300c3
:101c6c0070696e67000000003a2050696e67206151
:101c7c006e2049502061646472657373000000002b
:101c8c00646e7363000000003a20444e5320636c72
:101c9c0069656e7420636f6d6d616e647300000016
:101cac006d6163696e666f003a20436865636b20f3
:101cbc004d414320737461746973746963730000dc
:101ccc006d69696d000000003a204d49494d206353
:081cdc006f6d6d616e64730011
:020000040000fa
:101ce4002de9f04fcdb00f211a2023f023f810b9bd
:101cf4004db0bde8f08fae4bb3f90230b3f1ff3f06
:101d0400f6d0ac4b1b68002bf2d0ab4b1b7813f016
:101d1400010f0fd1a94b186803680022a8499847fe
:101d2400a84b1860b0f1ff3fe2d0a34a137843f008
:101d340001031370dff8a8a240e0a34825f0c0fc1b
:101d4400042802d00023149333e09f4825f0b8fc04
:101d54000546149010282cd89b4c24aa01462046f2
:101d640022f018f900224ca94b1903f8a02c2046a4
:101d740025f0a6fc044600f16003dbb2052b18d85d
:101d84002b2222fa03f313f0010f12d029a81ff01b
:101d940019fa70b18df88a409df88d300bb9a52cd5
:101da40007d024a819f0b8f9032864d101e000236e
:101db40014939df88d30032b00f092807c4bb3f983
:101dc40002301e461693184625f032fa05460028be
:101dd40001f029807d4c40f2f1120021204627f0c9
:101de4002dfa38a930461ff085fd714b4a9ada6105
:101df4009c60dc60b5f5f07f94bf621904f5f07265
:101e04001a61b5f5f07f28bf4ff4f075aab22146e8
:101e1400304618f020fe304625f06afe0022249257
:101e24002592269227928df8a020aaf80020684bcc
:101e34001a80624b1868046a134662490968a0470d
:101e4400b0f1ff3fbad05a4b00221a712ea823f0ea
:101e5400bffa14900028acd02ea81ef0e1fd002893
:101e6400a5d02e9b8df88d30012b7ff666af032b0a
:101e740027d1002314939df88d30032b30d02ea846
:101e84001ef0cefd002899d02e9b21939df88d3015
:101e9400012b93d89df88a20a52a15d1012b8dd129
:101ea4002ea81ef0bdfd002888d02e9b8df888300a
:101eb4002ea81ef0b5fd002880d02e9b8df8893009
:101ec4000ee00023149374e72ea81ef0a9fd002849
:101ed4003ff474af2ea81ef0a3fd00283ff46eafac
:101ee40040f2e111169827f091fcb0f5f07f25d36c
:101ef40000221146169e304622f02bfe2d4c2568fa
:101f0400304626f03cfc286325682b6b002b3ff4fd
:101f140055af0023ab869df88d30032b15d1254b8f
:101f24001b681a79002a7ff449af998e169c2046c3
:101f340022f00ffe204610f091fc3fe740f2e11240
:101f44000521169811f0b4f9d2e700248df87940f0
:101f54008df87a40adf87c40adf88040adf8104083
:101f6400282221462ea827f069f91a4b9c805c8010
:101f74001c80dc80164b1b881893174b1c80ac709c
:101f8400a3460f940394159417941a941c940b94d9
:101f940019940e940994079408942646059406947b
:101fa4001d94a14602940c9424ab1b930b4f38e16f
:101fb40084280120c82b0120bc2d0120d02b012016
:101fc400a42e0200d82b01208c280120e01201202d
:101fd400c22b012008270120a02d0120d1140120ab
:101fe400ba2d0120079b2bb100230d930a934c4675
:101ff40000f02abe0a9309e1ab4b1d6805f1300bd2
:102004000024adf810405946302026f023f85946f4
:10201400822026f01ff8ab8e1c935946204626f0ea
:1020240019f85946204626f015f85946022026f09c
:1020340011f85946012026f00df859469df88d00f7
:1020440026f008f85946042026f004f85946149c52
:10205400204625f0ffff631edbb2002c00f0008158
:102064005c1c1b9d2c44594615f8010b25f0f2ff0e
:10207400a542f8d1ff2301223a70149a1d921493b9
:102084001b945946a22025f0e5ff5946822025f0ed
:10209400e1ffbbf804301a935946002025f0daff1b
:1020a4005946002025f0d6ff5946022025f0d2ffdc
:1020b4005946042025f0ceff59469df8870025f0a7
:1020c400c9ff59469df8860025f0c4ff59469df87e
:1020d400850025f0bfff59469df8840025f0baff1e
:1020e4003b7801333b705946022025f0b3ff594633
:1020f400012025f0afffbbf80430179359460020a8
:1021040025f0a8ff3b7801333b705946022025f0a7
:10211400a1ff5946012025f09dffbbf8043015931b
:102124005946002025f096ff00228df87b203b784d
:1021340001333b7016461fa823f04af9002800f02b
:102144009583bdf87c40baf80080002c00f08a80aa
:1021540000250df1820023f03bf90246002800f02f
:102164008380bdf88200baf800300344aaf8003036
:102174000135edb21044201a84b2002ce9d1aaf83a
:10218400008006953b7801333b709df88d3003f059
:10219400fd03012b6ad0069b059300230993079343
:1021a400099b1946079a1046059a00fb01235ffa1a
:1021b40083f93b7801333b7008925946302025f06f
:1021c40049ff5946822025f045ffbbf80430199396
:1021d4005946002025f03eff5946002025f03affdd
:1021e400324b00221a803b7801333b70089b002b52
:1021f4005ed1baf800300f930b233b70bbf8043068
:1022040003930433abf8043000230a93089b43ea96
:10221400090313f0ff0f00f07e850a9b002b40f0aa
:102224000a863b780b2b00f2678501a252f823f053
:10223400fd1f000087200000eb2000000f2100009c
:102244003b2100008f210000bf210000f12100008c
:10225400eb220000c323000009240000e91f000052
:102264001b9c08e700258ae706908be79df88a30d7
:10227400a52b05d0069b05930023099307938fe7ad
:102284009df88830069a934228bf1346d9b2059127
:102294009df8893007938a4203d3531adbb209931a
:1022a4007ee7002309937be7c82b0120a02d0120a2
:1022b400731cdeb220a823f08bf8029000283ad0d9
:1022c400bdf87c30bdf880209b1a029a9b1aadf8a9
:1022d4007c30bbf8043003939df88a30a52b35d0ad
:1022e4003b7801333b700df1790129a81ff06cfa9a
:1022f40088b39df88a30a32b38d15946062025f09f
:10230400a9fe59469df8790025f0a4fe9df8793080
:102314005d1eeab2029293b31546013529ab1d4402
:102324001c46594614f8010b25f094feac42f8d132
:10233400ff23029323e0cdf800b03346052215991c
:10234400179825f080fb01230a935fe7039b04336e
:10235400abf80430c4e7cdf800b033460522159934
:10236400179825f070fb01230a934fe725f0baf97b
:10237400002800f07b829df88a30a52bbdd19df802
:102384008d30032b40f0a3809df8a4302b2b40f01c
:10239400da809df8a530062b40f0d5809df8a63054
:1023a400012b40f0d0809df8a730042b40f0cb8067
:1023b4003c78002c00f0ac80072c00f0a184089b32
:1023c400002b00f0c780013b13f0ff03089300f0db
:1023d400c18009f1ff335ffa83f92eab00939df8b6
:1023e400793029aa21a9ba4800680bf049fe0e9059
:1023f400012804d09df88a30a52b40f0b1803b78a9
:1024040001333b70039babf804305946302025f070
:1024140021fe5946822025f01dfebbf80480594652
:10242400002025f017fe5946002025f013fe5946da
:10243400062025f00ffe9df88a30a32b00f0528170
:10244400a02b00f0cd81a52b00f0ad81a12b00f0d5
:10245400ad81029b002b40f016859df88d30002b3a
:1024640000f042825946052025f0f4fd594600202b
:1024740025f0f0fd9df88a30a12b00f04082a52bb9
:1024840000f034859df88a30a02b40f0528202235c
:1024940002930123b3401bb28e494a881a434a80ef
:1024a4000a881a430a808a881a438a80ca8813438e
:1024b400cb809df88a30a02b00f0e984a52b40f056
:1024c400ec840e9b012b40f0e88400f0e0bc24a8cf
:1024d40018f022fe00233b709df88a30a32b0ad00b
:1024e40003280ad009233b709df8a4302b2b3ff41a
:1024f40050af3c7860e7022807d09df8a4302b2b1e
:102504003ff447af00230a9380e609233b70ebe7cf
:102514002eab00939df8793029aa21a96c48006854
:102524000bf0aefd0e906c4b1b68329a1a701c9a1d
:10253400023a6a490a8000229a7104225a710122dd
:102544001a710894a1463c78002c7ff435af00231f
:102554000a935be6baf800300f930023089338e738
:10256400039babf804305946302025f073fd5946df
:10257400822025f06ffdbbf80430039359460020f8
:1025840025f068fd5946002025f064fd9df879404a
:102594005946062025f05efd4f4bd3f8008098f88d
:1025a4000330002b4ed09df8790001305946c0b25b
:1025b40025f050fd651eedb254b1013529ab1d4423
:1025c4001c46594614f8010b25f044fdac42f8d1e1
:1025d40098f80330002b3bd1bdf8103002339df83e
:1025e4007920d318adf810309df88d30002b3cd0f5
:1025f400012b00f02a84032b00f03f84bdf8103037
:102604000233adf81030364a1388bdf810502b440d
:1026140004331380bbf804400b94039babf80430e1
:102624005946c5f3072025f015fd5946e8b225f0b3
:1026340011fdabf804400023adf8103007223a70c6
:102644000a93e3e559469df8790025f003fdb1e7c7
:102654005946002025f0fefcbdf8103003339df8e8
:102664007920d318adf81030bee702228df87b2014
:10267400cdf800b033461599179825f0e4f959467a
:10268400052025f0e7fc5946002025f0e3fc9df8e1
:102694008d30032bb2d1b6e759460e9c204625f067
:1026a400d9fc5946002025f0d5fc802c09d00e9b7e
:1026b400812becd10123b34006498a8813438b80d4
:1026c400e5e70123b34003490a8813430b80dee79f
:1026d400d82b012008270120c82b0120c22b012060
:1026e400a02d01209df879409df8c010009429abdd
:1026f400bdf8c820c9099df88d001bf077fe00289d
:1027040032d0ad4b1b680293db788bb39df8790014
:1027140001305946c0b225f09dfc631edbb254b1b2
:10272400013329aad5181446594614f8010b25f08b
:1027340091fcac42f8d1029bdb78fbb90df17b0232
:102744002ea921a80df020f902909df87b20d2b982
:10275400994b1b68db78f3b19df879300333029a07
:102764001344adf8103073e0944b00221a707de0ee
:1027740059469df8790025f06dfccee759460020b6
:1027840025f068fcdae7cdf800b0334615991798c0
:1027940025f059f9dce79df879300233029a1344a5
:1027a400adf8103054e00e9b012b19d021a92ea8ae
:1027b4000cf004fe029000286ed09df88a30a12b04
:1027c40040f0bf807c4b1b689b78002b00f0c180dd
:1027d400bdf810300233029a1344adf8103068e6a5
:1027e4009df8c0109df87930009329abbdf8c8203e
:1027f400c9099df88d001bf0f9fd002833d09df820
:1028040079406d4b1b680293db78002b35d0601c3c
:102814005946c0b225f01efc651eedb254b1013517
:1028240029ab1d441c46594614f8010b25f012fc33
:10283400ac42f8d1029bdb7823bb9df8793002339c
:10284400adf8103021aa00212ea810f027ff029025
:10285400029b002bb1d19df88a30a32b7ff4fdadf0
:102864000023029319e3554b00221a70524b1b6844
:1028740000229a861a63fff7a1ba5946204625f02a
:10288400e9fbc9e75946002025f0e4fb9df87930bf
:102894000333adf81030d5e79df87940464b1b68fb
:1028a4000293db78dbb1601c5946c0b225f0d2fb41
:1028b400631edbb254b1013329aad5181446594614
:1028c40014f8010b25f0c6fbac42f8d1029bdb786f
:1028d400002bc0d05946002025f0bcfbbbe759466d
:1028e400204625f0b7fbe3e702228df87b20cdf8e4
:1028f40000b033461599179825f0a5f8b2e59df870
:102904008d30012b07d09df879300533adf81030a8
:1029140000230293bde5bbf80430023babf804305e
:102924005946822025f096fb5946002025f092fb5b
:10293400a8e5a52b00f0df82a12be4d000230293ad
:10294400a7e5a52b40f09f820e9b012b7ff43aafa5
:102954009de2029b0233adf81030aae59df88d305c
:1029640003f0fd03012b40f0b482089a002a40f0e2
:10297400b0820b9a1899521ab2f5f07f80f2c48192
:102984000b233b70a7e2013ce4b220a822f020fd17
:102994000290bdf88030baf800201344aaf8003041
:1029a40093e0cdf800b0334605221599179825f029
:1029b4004af80a9541e100bfc82b0120d114012037
:1029c4002ea9b84b186814f065fc002846d19df870
:1029d40079805946062025f03dfb002800f06a81e5
:1029e40059469df8790025f035fb002800f06781f1
:1029f40029ab98441d46454508d0594615f8010ba6
:102a040025f028fb0028f6d101230c935946822097
:102a140025f020fb002800f057815946002025f0be
:102a240019fb002800f055810123b3409e49ca8850
:102a34001343cb809df879300433adf81030002374
:102a440002931ce059469df8790025f003fb002809
:102a540040f0c7800e9501230c93eee021ab009368
:102a64000df17a030df1790229a92ea80bf0befc11
:102a740002900028abd0029b0233adf810308b4a91
:102a84001388bdf81080434404331380bbf804500a
:102a94000b95039babf804305946c8f3072025f087
:102aa400d9fa002800f01a8159465ffa88f025f017
:102ab400d1fa002800f01581abf80450189beb1aea
:102ac400b3f5f07f00f310810395119b4b4500f0a3
:102ad400b4805ffa89f3059a9a42139b08bf1e4695
:102ae4000136f6b209f101096f4bdb8843fa09f3a9
:102af40013f0010f7ff447af0cb1013ce4b24ff087
:102b04000003adf81030bbf804300b93039babf813
:102b140004305946302025f09dfa002800f08b80bf
:102b24005946822025f096fa002800f0a280bbf8ce
:102b3400043003935946002025f08cfa002800f055
:102b44009b805946002025f085fa0546002800f0b0
:102b54009680129b8df87a3020a822f039fc0290de
:102b640000286ad00df1790129a81ef02dfe002855
:102b74003ff417af9df88a30a32b03d024f0b2fda5
:102b840000285ad02eab00939df8793029aa21a9a8
:102b9400444800680bf074fa0e9082283ff410af9a
:102ba4000e9b002b7ff45aaf9df87980594606207e
:102bb40025f050fa002865d03d4b1b681093dd7852
:102bc400002d3ff43faf9df8790001305946c0b263
:102bd40025f040fa002858d09df8793001338df85b
:102be400793029ab98441d46454508d0594615f817
:102bf400010b25f02ffa0028f6d101230c93109b2a
:102c0400db782bb15946002025f024fa00283fd068
:102c14005946822025f01efa00283cd0594600204f
:102c240025f018fa002839d00123b3401e49ca8878
:102c34001343cb801fe701230c930d9b01330d93aa
:102c4400dbb2079a9a4254d99df8343012930f9b01
:102c5400aaf8003009990029efd0059b9946013361
:102c64004a1e53fa82f31193069b5b1adbb2139349
:102c74002fe701230c93e0e701230c93dde7012305
:102c84000c93dae701230c93d7e701230c93d4e7e1
:102c940001230c93d1e701230c93cee701230c937a
:102ca400cbe700bfd82b012008270120a02d01204d
:102cb400c82b01200023029301230c93bde70023ba
:102cc400029301230c93b8e70023029301230c938e
:102cd400b3e70023029301230c93aee701230c9383
:102ce400abe701230c93a8e70b9b039301230c93fd
:102cf400a3e7a146fff78aba00230a93fff786ba2f
:102d040000230a93fff782ba0b9a03920c930023d1
:102d14000a93fff77bba7c4b00221a700c9b1bb101
:102d24009df88a30a52b45d0bbf804400a9b43b1db
:102d3400189be31ab3f5f07f03dd9df88a30a52bc9
:102d440042d1199babf80430704f5946787825f07e
:102d540081f95946387825f07df93e8806f1100549
:102d6400adb23d801a9babf804305946280a25f0d1
:102d740071f95946e8b225f06df9abf804409df8b5
:102d84008d30032b03d019361d9b1e443e801c9ba3
:102d9400abf804305d4d5946687825f05bf9594627
:102da400287825f057f9abf80440574b00221a70e5
:102db400fff7b5b80b99abf804100122544bb3f9e3
:102dc400020021f0c6feafe7cdf800b000230122d7
:102dd4001599179824f037fe1a9babf8043059461e
:102de400002025f037f959460c2025f033f91d9cb5
:102df40004f1150080b2454b18801c9babf80430dd
:102e04005946000a25f026f904f115005946c0b2c6
:102e140025f020f9199b023babf804303a4b002211
:102e24001a70fff77cb80021394bb3f902001af08d
:102e3400f5fbfef75dbf344b00221a700c9b002b90
:102e44007ff46eafbbf8044072e79df88a30a32b81
:102e54003ff4d4aba02b3ff41faca12b7ff417acf1
:102e64000e9b822b7ff413ac5946822025f0f2f896
:102e74005946002025f0eef809e49df88a30a32b8a
:102e8400e8d1fff7c0bb9df88a30a02b05d1bdf86f
:102e94001030029a1344adf810301c4a1388bdf860
:102ea40010502b4404331380bbf804400b94abf84c
:102eb40004805946c5f3072025f0ccf85946e8b2fa
:102ec40025f0c8f8abf804409df88a30a52b3ff4f0
:102ed40045ad07233b700023adf810300d4a12684e
:102ee40093700b9a03920a93fff790b99df88d3073
:102ef400012b3ff410ad0e9b012b7ff404ad022394
:102f04000293fff7c6ba00bfd1140120a02d0120ff
:082f140084280120c82b0120d4
:020000040000fa
:102f1c00702901201c00000000000000f02401209a
:102f2c0068000000000000008c1601200400000066
:102f3c0000000000301e0120f8000000010000001d
:102f4c00242502000000000000000000000000002a
:102f5c000000000000000000000000000000000065
:102f6c000000000000000000000000000000000055
:102f7c000000000000000000000000000000000045
:102f8c000000000000000000000000000000000035
:102f9c000000000000000000000000000000000025
:102fac000000000000000000000000000000000015
:102fbc000000000000000000000000000000000005
:102fcc0000000000000000000000000000000000f5
:102fdc0000000000000000000000000000000000e5
:102fec0000000000000000000000000000000000d5
:102ffc0000000000000000000000000000000000c5
:10300c0000000000000000000000000000000000b4
:10301c0000000000000000000000000000000000a4
:10302c000000000000000000000000000000000094
:10303c000000000000000000332801200100000007
:10304c0001000000ff000000c42b01200400000060
:10305c0000000000f02301208000000000000000b0
:10306c00c02d0120020000000100000054000000ef
:10307c0084210120a800000000000000cc220120c7
:10308c009400000000000000ba2d01200200000096
:10309c0000000000bc2d0120010000000000000019
:1030ac00c22b01200200000000000000c82b0120f0
:1030bc000400000000000000cc2b012004000000e4
:1030cc000000000084280120200000000000000007
:1030dc00e0120120f1010000000000004f29012046
:1030ec0001000000000000006f2901200100000019
:1030fc0000000000d11401200100000000000000bd
:10310c00d02b01200400000000000000d42b012073
:10311c000400000000000000082701200800000047
:10312c0000000000a02d01200200000000000000a3
:10313c00492b01200100000000000000bd2d0120e2
:10314c000100000000000000d82b0120040000004a
:10315c0001000000ffffffffdc2b0120040000003a
:10316c0001000000b02e0200a82901201800000068
:10317c0000000000e02b0120040000000000000013
:10318c00e42b01200400000000000000e82b0120cb
:10319c000400000000000000ec2b012004000000e3
:1031ac0000000000202a0120140000000000000094
:1031bc00f02b01200400000000000000f42b012083
:1031cc000400000000000000f82b012004000000a7
:1031dc0000000000fc2b0120040000000000000097
:1031ec009e2d01200200000000000000d2140120de
:1031fc000200000000000000002c01200400000070
:10320c0000000000042c012004000000000000005d
:10321c00082c012004000000000000000c2c0120f0
:10322c000400000000000000102c0120040000002d
:10323c00000000007c2601204c0000000000000073
:10324c00bc2b01200600000001000000ffffffff67
:10325c00ffff0000c0290120180000000000000042
:10326c00142c01200400000000000000182c012088
:10327c0004000000000000001c2c012004000000d1
:10328c0000000000302901201f0000000000000099
:10329c00202c01200400000000000000242c012040
:1032ac0004000000000000004a2b01200200000076
:1032bc0000000000282c0120040000000000000089
:1032cc00a0020120d0070000000000002c2c0120df
:1032dc000400000000000000302c0120040000005d
:1032ec0000000000342c012004000000000000004d
:1032fc00382c01200400000000000000a22d012049
:10330c0002000000000000003c2c01200400000022
:10331c0000000000402c0120040000000000000010
:10332c00382b012011000000000000005029012062
:10333c001f00000000000000442c012004000000cd
:10334c0000000000482c01200400000000000000d8
:10335c004c2c01200400000000000000502c012027
:10336c000400000000000000542c012004000000a8
:10337c0000000000a42d012002000000000000004d
:10338c00582c012004000000000000005c2c0120df
:10339c000400000000000000602c0120040000006c
:1033ac0000000000642c012004000000000000005c
:1033bc00a62d01200200000000000000682c012056
:1033cc0004000000000000006c2c01200400000030
:1033dc0000000000702c0120040000000000000020
:1033ec00be2d01200100000000000000bf2d0120b7
:1033fc00010000000100000001000000742c0120fd
:10340c00040000000100000064000000c22d012037
:10341c000100000000000000c32d0120010000008d
:10342c0000000000782c01200400000000000000c7
:10343c007c2c01200400000000000000a82d0120bd
:10344c000200000000000000802c0120040000009d
:10345c0000000000842c012004000000000000008b
:10346c00882c012004000000000000008c2c01209e
:10347c000400000000000000902c0120040000005b
:10348c0000000000942c012004000000000000004b
:10349c00281f0120d800000000000000cc270120cc
:1034ac003400000000000000982c012004000000f3
:1034bc0000000000c42d01200100000000000000ed
:1034cc009c2c01200400000000000000a02c012016
:1034dc000400000000000000a42c012004000000e7
:1034ec0000000000a82c01200400000000000000d7
:1034fc0004a000200c00000000000000342a012071
:10350c001400000000000000c52d01200100000087
:10351c0000000000aa2d01200200000000000000a5
:10352c00ac2d01200200000000000000ac2c01209a
:10353c000400000000000000482a012014000000d4
:10354c0000000000b02c012004000000000000006e
:10355c00b42c01200400000000000000ae2d01205e
:10356c000200000000000000b02d0120020000004d
:10357c0000000000b82c0120040000000000000036
:10358c00bc2c01200400000000000000c02c012015
:10359c0004000000000000005c2a01201400000060
:1035ac0000000000c42c01200400000000000000fa
:1035bc00b22d01200200000000000000c82c0120e8
:1035cc000400000000000000cc2c012004000000ce
:1035dc00000000003428012028000000000000003a
:1035ec00d02c01200400000000000000602301200a
:1035fc009000000000000000700e0120700200001e
:10360c0000000000d42c0120040000000000000089
:10361c00d82c01200400000000000000dc2c01204c
:10362c000400000000000000e02c01200400000059
:10363c0000000000e42c0120040000000000000049
:10364c00e82c01200400000000000000ec2c0120fc
:10365c0004000000000000004c2b012010000000b2
:10366c0000000000d8290120180000000000000014
:10367c00a42801202000000000000000f02c0120f4
:10368c000400000000000000c62d01200100000015
:10369c0000000000f42c01200400000000000000d9
:1036ac00f82c01200400000001000000ffffffffc8
:1036bc00fc2c01200400000000000000002d012063
:1036cc000400000000000000042d01200400000094
:1036dc0000000000082d0120040000000000000084
:1036ec00b42d012002000000000000000c2d012070
:1036fc000400000000000000102d01200400000058
:10370c0000000000142d0120040000000000000047
:10371c00b62d01200200000000000000a0da0020fd
:10372c000010000000000000a0ea002000100000c3
:10373c0000000000c826012040000000000000002e
:10374c00842b01200800000000000000182d01202f
:10375c000400000000000000702401208000000024
:10376c00000000008c2b012008000000000000006d
:10377c00c72d01200100000000000000700a01208c
:10378c0000040000000000001c2d012004000000bb
:10379c0000000000241c01200c00000000000000b0
:1037ac00c42801200c0000000000000000200120b3
:1037bc00c800000000000000202d012004000000c3
:1037cc0000000000c82d01200100000000000000d6
:1037dc00c92d01200100000000000000242d012053
:1037ec000400000000000000301c0120000100005b
:1037fc0000000000301d012000010000000000004e
:10380c00d02801202000000000000000f02801203a
:10381c002000000000000000901601209001000024
:10382c000000000010290120200000000000000012
:10383c00ca2d01200100000000000000102701200b
:10384c004000000000000000702a0120140000005d
:10385c0001000000ff00000000000000000000005c
:10386c00ff000000ff000000cb2d01200100000034
:10387c0000000000942b0120080000000000000054
:10388c0020180120900100000000000010c0002052
:10389c00901a000000000000842a0120140000008f
:1038ac00000000009c2b012008000000000000001c
:1038bc00282d012004000000000000009c2d012098
:1038cc000200000000000000a42b012008000000f2
:1038dc0000000000a0fa002000080000000000001a
:1038ec00e010012000020000000000005c28012014
:1038fc0028000000000000008c2901201c000000a2
:10390c0000000000f0290120180000000100000058
:10391c005c2801208c290120b896020000000000d0
:10392c00e010012000000000982a01201400000083
:10393c00010000000c7302001073020014730200eb
:10394c001c7302002073020050270120400000006d
:10395c00000000002c220120a0000000000000004c
:10396c00b82d012002000000010000000100000041
:10397c002c2d01200400000000000000302d01203f
:10398c000400000000000000342d012004000000a1
:10399c00000000001c1b01200801000000000000ba
:1039ac005c2b0120100000000000000010a0002083
:1039bc000020000000000000382d01200400000051
:1039cc0000000000082a0120180000000000000080
:1039dc00ac2a0120140000000100000001010000cd
:1039ec0021920200119202003192020052990000c1
:1039fc006c2b01200c0000000100000044be0100f3
:103a0c004cbe010000000000782b01200c000000cf
:103a1c000100000034be01003cbe010044be0100a8
:103a2c003c2d01200400000000000000402d01206e
:103a3c000400000001000000aaaaaaaa442d01203b
:103a4c0004000000000000000400002000a00000a2
:103a5c0000000000482d01200400000000000000c0
:103a6c004c2d01200400000000000000502d01200e
:103a7c000400000000000000542d01200400000090
:103a8c000000000058250120640000000000000028
:103a9c00582d012004000000000000005c2d0120c6
:103aac000400000000000000602d01200400000054
:103abc0000000000642d0120040000000000000044
:103acc00682d01200400000000000000c02a012025
:103adc001400000000000000d42a01201400000093
:103aec00000000006c2d012004000000000000000c
:103afc00702d01200400000000000000742d012036
:103b0c000400000000000000782d012004000000db
:103b1c0000000000e82a0120140000000000000052
:103b2c007c2d01200400000000000000fc2a012074
:103b3c001400000000000000102b012014000000f5
:103b4c0000000000802d0120040000000000000097
:103b5c00842d01200400000000000000bc25012081
:103b6c006000000000000000ac2b012008000000e9
:103b7c0000000000002801203300000001000000bc
:103b8c002b060102010100000000000000000000f3
:103b9c00012b060104018185470101000000000092
:103bac000001000000000000000000000000000008
:103bbc0000000000902701203c00000001000000e4
:103bcc0002000000000000000000000000000000e7
:103bdc0000000000000000000000000000000000d9
:103bec0000000000000000000000000000000000c9
:103bfc00000000000000000000000000b42b0120b9
:103c0c000800000000000000c8200120bc000000db
:103c1c0000000000cc2d012001000000000000007d
:103c2c00cd2d01200100000000000000d414012063
:103c3c00b801000000000000242b0120140000003b
:103c4c0000000000882d012004000000000000008e
:103c5c008c2d012004000000010000001c26012016
:103c6c001c26012060000000010000000000000084
:103c7c000000000000000000000000000000000038
:103c8c000000000000000000000000000000000028
:103c9c000000000000000000000000000000000018
:103cac000000000000000000000000000000000008
:103cbc0000000000000000000000000000000000f8
:103ccc00000000000000000000000000902d01200a
:103cdc000400000000000000942d012004000000ee
:103cec0000000000000000200400000000000000a4
:103cfc00b01901206c01000001000000430000001d
:103d0c0000000000000000000000000000000000a7
:103d1c000000000000000000000000004300000054
:103d2c000000000000000000000000000000000087
:103d3c000000000000000000000000004300000034
:103d4c000000000000000000000000000000000067
:103d5c000000000000000000000000004300000014
:103d6c000000000000000000000000000000000047
:103d7c0000000000000000000000000043000000f4
:103d8c000000000000000000000000000000000027
:103d9c0000000000000000000000000043000000d4
:103dac000000000000000000000000000000000007
:103dbc0000000000000000000000000043000000b4
:103dcc0000000000000000000000000000000000e7
:103ddc000000000000000000000000000588020048
:103dec00057a020000000000fc910100e59602003b
:103dfc00e4960200e4960200e4960200e4960200c7
:103e0c00e4960200e4960200e4960200e4960200b6
:103e1c00e4960200ffffffffffffffffffffffff26
:103e2c00ffff00000100415343494900000000001e
:103e3c000000000000000000000000000000000076
:103e4c0000000000000041534349490000000000fd
:103e5c000000000000000000000000000000000056
:103e6c000000000000000000982d0120040000005c
:103e7c0000000000000000000000000022222222ae
:020000040000fa
:103e8c002de9f04fd5b004462022002147a825f09b
:103e9c00d1f9b44db44e06f1e80894f842300a2b2f
:103eac0000f29985dfe813f00b003900d4017b0296
:103ebc009702a002c406ce065b0463047f06b4f925
:103ecc00540025f05cf8002800f08585636c2361b4
:103edc00012384f84230ff2384f851304ff000095d
:103eec0084f8509023f018fa824623f03dfa00eb48
:103efc004000c0eb00105044a0604ff0ff33e36073
:103f0c00c4f80090a4f84890a4f8529084f83e901d
:103f1c00964b1b7813f0010f5ad1002200921346d6
:103f2c000a21b4f9540023f09bfd4ff6ff7398421d
:103f3c0056d023f0f1f9814623f016fa00eb40003d
:103f4c00c0eb00104844a0600022009213462021d0
:103f5c00b4f9540023f084fd052828bf0520421c29
:103f6c0092b2616cb4f9540017f0a0f9d4f84490f3
:103f7c00032206f1a001484624f0e8fa002845d1b6
:103f8c00002384f840304ff0000acdf800a05346cf
:103f9c0052462021b4f9540023f062fd8146cdf83d
:103fac0000a0034652463f21b4f9540023f058fdbb
:103fbc00484528bf484682b26d4b1b880a3b93424a
:103fcc0035dc052384f84030072384f8423064e75d
:103fdc0005234a460121b4f954000bf073f89ce711
:103fec00b4f9540024f050f8002840f0f285052371
:103ffc0084f84030072384f8423023f08df9a3680d
:10400c00c01a00287ff749af00f0eabd042206f180
:10401c00a401484624f09afa18b9012384f84030d8
:10402c00b1e7072384f8403084f8423035e7616cff
:10403c00b4f9540017f03af9636c00221a54606c0e
:10404c0019f00cf8d4f844a00af1010b0b2206f17c
:10405c00ac01584624f07afa58b994f84030002b49
:10406c000cbf0a230b2384f84030022384f842301f
:10407c0013e7504625f0eef81ffa80f9cdf80c90b6
:10408c0009f1ff331f461af803302f2b00f0b185ce
:10409c0028680368002259469847a061606c01307b
:1040ac0025f0d8f8b0f5807f1ad8d4f844a04ff496
:1040bc0080720af1010104f16c0023f0a1faa369ea
:1040cc00b3f1ff3f17d00023a4f84830616ccc4605
:1040dc0001eb09004b1c98424cd00a4601383ce0dd
:1040ec0025f0ccfa0128e0d925f0c2fa06f1b80186
:1040fc001cf024ffd9e71af807302f2b07d009f151
:10410c0001091ffa89f92f23039a0af80230184b78
:10411c001a88606ca2eb090206f1dc01484423f01a
:10412c006ffa09f109091ffa89f92868616c0368ab
:10413c00002201319847a061616c4ff4807201310b
:10414c0004f16c0023f05cfabde7b4f848e073446a
:10415c005b00a4f8483090420cd012f8013f202ba1
:10416c00f3d1f8e7842c0120487f0000c32d0120f7
:10417c00a82d01200cf1ff3c01eb0c0a51450ed08f
:10418c0011f80c302e2b0ad00af1ff330a469a464e
:10419c00934204d0013b9af800102e29f7d10af172
:1041ac00010a4ff0000984f84190dff874b35bf812
:1041bc002910504624f0c6fe40b109f101095ffafe
:1041cc0089f984f84190b9f10b0ff0d900220092d3
:1041dc0013462021b4f9540023f042fc814610b35d
:1041ec00012384f850300df24f11b4f9540025f02e
:1041fc00a2fa09f1ff3292b2c74b1b88023b9a42da
:10420c0006db052384f84030072384f8423044e66b
:10421c00616cb4f9540017f049f822691318013392
:10422c002361262313544ff00009cdf800904b4620
:10423c004a460a21b4f9540023f012fc421c92b2f3
:10424c004946b4f9540017f031f8022384f842308f
:10425c004ff0010adff8ccb238e0b4f9540023f087
:10426c0013ffa0b9052384f84030072384f84230ab
:10427c0023f052f8a368c01a00287ff70eaeb4f9e9
:10428c00540024f003fa0a2384f8423005e623f0a4
:10429c0043f8a368c01a0028f1dcbaf1000f3ff410
:1042ac00fcad98e302220021b4f9540016f0feff95
:1042bc00032384f84230f0e509f1010292b20021a7
:1042cc00b4f9540016f0f2ff4ff0000a00220092ed
:1042dc0013460a21b4f9540023f0c2fb81464ff671
:1042ec00ff739842b9d023f017f8824623f03cf8bc
:1042fc0000eb4000c0eb00105044a060b9f1010f7e
:10430c00d0d0002200924b463a21b4f9540023f04d
:10431c00a7fb02301ffa80fabaf1100fccd8524624
:10432c004fa9b4f9540016f0c1ff002254ab53440a
:10433c0003f8152c41464fa81ff036f8002800f062
:10434c000a8506f1f0014fa81ff02ef8002800f0a6
:10435c00028506f580714fa81ff026f8002800f0a2
:10436c00e984a9eb0a0290b24ff0000a421c92b207
:10437c000021b4f9540016f099ffa7e70df11c09c0
:10438c0002464946b4f9540016f090ff002309f890
:10439c000030484625f082fa206000f0dcbc23692e
:1043ac0000221a70606c18f059fe206194f84030ad
:1043bc000a2b0cd0042384f8423094f8503013b9f3
:1043cc00052384f84230002384f8503065e5072338
:1043dc0084f8423061e520461bf010fa022800f008
:1043ec00fa82052384f84230b4f9540024f0c7fd56
:1043fc00e368984215d094f84030012b00f0088403
:10440c00a3f10b02d2b2042a00f20f840b3b042b53
:10441c0000f22881dfe813f013003100a100eb005b
:10442c00880022f079ffa368c01a0028e3ddb4f9f4
:10443c00540024f02bf90a2384f842302de5002394
:10444c00a4f8563001930093042206f58871b4f950
:10445c0054000df095fd4ff6ff73984217d0021dd6
:10446c0092b20021b4f9540016f020ff2368043beb
:10447c001b1a23600c2384f84030b4f9540024f048
:10448c007efd052813d801238df84f31c5e3b4f90f
:10449c005490484624f073fd021f92b20021484606
:1044ac0016f004ff23681b1a23600123ece7062295
:1044bc0007a9b4f9540016f0f9fe23681b1a2360ff
:1044cc00062206f58c7107a824f040f8f8b9a36d04
:1044dc0083b103f58052e265d6f818011860b6f87e
:1044ec001c219a80a36d063323660d2384f840307b
:1044fc000223c9e7094b1b684ff480509847a0650d
:10450c0006f5907014f0eafca36d002be1d10f239b
:10451c0084f840300223b7e7a82d0120942c012009
:10452c00ec5402000c990200a06d20b1be4b1b682c
:10453c0098470023a365b4f9540024f020fd2368a8
:10454c001b1a2360b4f9540022f0fbff2368643b70
:10455c00b64a934273d8012396e7b4f9540024f079
:10456c000efd216ee36d5b1a9842c8bf98b22368aa
:10457c00984288bf98b2002800f042830246b4f9f2
:10458c00540016f093fe236e034423662268121a1d
:10459c002260e16d8b4202d0002a40f03383a26d81
:1045ac009b1a03f2ff13002bb8bf03f2ff134fea61
:1045bc0063294b46b4f85610012010f03fff60669b
:1045cc00b0f1ff3f09d0b4f856304b44a4f8563044
:1045dc000e2384f84030022356e70f2384f8403032
:1045ec0006f59871002021f04dff02234ce7616e17
:1045fc00012022f069fe002840f006830d2384f888
:10460c004030a06d20662368002b40f0ff82864b63
:10461c001b6898470023a3650093022206f590714e
:10462c0006f5a67010f00efbb0f1ff3f0ed006237e
:10463c0084f8423006f5ac71002021f023ff0023f2
:10464c008df84f31072384f8423026e40a2384f88e
:10465c00423006f5ba71002021f014ff0f2384f8c4
:10466c00403011e701238df84f31b4f9540024f098
:10467c0086fce06022f050fe814622f075fe00ebd5
:10468c004000c0eb00104844a0602268e3689a42e6
:10469c000ed8062384f84030072384f84230fff705
:1046ac00fcbbb4f9540024f06afc0138e06092e1e0
:1046bc00b4f9540023f0e8fc0028ead08be1042381
:1046cc0084f84030072384f84230fff7e6bb02231e
:1046dc0000220121b4f954000af0f4fcb8e2616c38
:1046ec00b4f9540023f0ecff06f5cc71b4f9540086
:1046fc0023f0e6ff616cb4f9540023f0e1ff4c4960
:10470c00b4f9540023f0dcffb0e20a2384f8423001
:10471c0061e106f5d671b4f9540023f0d1ff94f899
:10472c004120444b53f82210b4f9540023f0c8ff35
:10473c003f49b4f9540023f0c3ffa1e206f5de7142
:10474c00b4f9540023f0bcffa8e23949b4f9540081
:10475c0023f0b6ff092384f84230fff79ebb34499f
:10476c00b4f9540023f0acff092384f8423094f8d8
:10477c003e308bb90023069394f84330082b00f29b
:10478c001082dfe813f01c002800aa000e02c800fb
:10479c000d0068018401bf010a2384f842301ae13c
:1047ac0028680368002206f5057198478146286839
:1047bc00d0f820a00023228f4946d047e2e0286899
:1047cc00c369a16998472063013810f1030f1fd802
:1047dc000023a362e36028680368002206f5f471e5
:1047ec0098478146b0f1ff3f16d02868d0f82ca02e
:1047fc00042306aa4946d047042802d001230e4ab6
:10480c001370022384f84330069b002b39d169e0e6
:10481c00012384f83e30bce1082384f843300123a3
:10482c0084f83c306ee000bf902c01209cffff7f91
:10483c000c990200b4540200c22d0120012384f80b
:10484c003b302868d0f82ca0042305aa4946d04751
:10485c00042802d00123aa4a1370059b23872868d9
:10486c00d0f82ca0042304f124024946d047042894
:10487c0035d00123a24a137031e0069b013b06930d
:10488c006bb32868d0f82ca002230df11202494614
:10489c00d047022802d00123994a1370b4f848205b
:1048ac00bdf812309a42c9d02868d0f82ca0042345
:1048bc0005aa4946d047042802d00123904a137018
:1048cc002868d0f82ca0042305aa4946d047042810
:1048dc00d3d001238a4a1370cfe74ff0ff39b9f1d7
:1048ec00ff3f03d0286843694946984794f93b3009
:1048fc00012b0dd0069b73b9082384f84330012398
:10490c0084f83c30236b002b00f03081002359e0fd
:10491c00042384f843300022e2602868036806f51b
:10492c00057198478146b0f1ff3f00f0328194f950
:10493c003a30002b52d12868228fd0f820a00632b2
:10494c004946d047012384f83a302868d0f82ca087
:10495c00042304f11c024946d047042802d0012349
:10496c00674a13702868d0f82ca0042304f12002a5
:10497c004946d047042802d00123614a137005230d
:10498c0084f84330e369002b30d1062384f843309c
:10499c002868436a494698472087e269a36a9a4285
:1049ac0004bf062384f84330286843694946984776
:1049bc00236b002b40f0d88094f83c30012b00f096
:1049cc00d58000234e4a92f90020012a00f0ce80b7
:1049dc00002b00f0de8055b0bde8f08f2868d0f8d1
:1049ec0020a00023228f4946d047aee7b4f95400eb
:1049fc0023f059fee269a36aa2eb030abaf5807fa1
:104a0c0028bf4ff4807a2868d0f82cb0534607aaf8
:104a1c00a169d8478346504502d00123384a137008
:104a2c001ffa8bf207a9b4f9540011f08ff90ffaa1
:104a3c0080fad34507d02868036a1f460123aaebe6
:104a4c000b02a169b847236ba3eb0a032363a36a88
:104a5c005344a3629ce72868d0f82c90012307aa42
:104a6c00a169c847012802d00123254a1370236b82
:104a7c00013b2363a36a0133a3629df81c307e2b98
:104a8c001fd0072384f84330012384f83c30216a7b
:104a9c00204610f05bfe94f83c30012b1ed0e368ee
:104aac00013b13f1030f8cbf002301238ae7236b17
:104abc00013b2363a36a0133a3629df81c307e2b58
:104acc00dfd02868d0f82c90012307aaa169c84729
:104adc000128ecd001230a4a1370e8e7636a013b12
:104aec006362042284f84320002b7ff40baf236b0a
:104afc0013b1082384f84330002384f83a3001e7db
:104b0c00c22d0120b4f9540023f0cdfd236bb3f575
:104b1c00807f28bf4ff4807399462868d0f82ca06a
:104b2c0007aaa169d0478246814502d001239c4a3d
:104b3c0013701ffa8af207a9b4f9540011f006f9a0
:104b4c000ffa80f9ca4507d02868d0f820b00123a5
:104b5c00a9eb0a02a169d847236ba3eb09032363d2
:104b6c00a36a4b44a36223e700232be7b4f9540058
:104b7c0022f0d4fc002384f83b3084f83a302362d2
:104b8c002387a36284f84330012284f83e20844ab0
:104b9c001370b4f9540023f086fd00287ff47da92e
:104bac0019e7002314e7a169b1f1ff3f06d07d4b53
:104bbc001868436998474ff0ff33a361b4f9540068
:104bcc0023f064fd00283ff406af002384f8423044
:104bdc0001e722f0a1fba368c01a00287ff7fbae07
:104bec00b4f9540023f052fd0a2384f84230fff745
:104bfc0054b9a369b3f1ff3f7ff465aafff787baf5
:104c0c00022341e402233fe402233de402233be47c
:104c1c00204606f067fd8df84f019df84f31022bb1
:104c2c003ff43fad012b3ff420ad062384f8423016
:104c3c00a369b3f1ff3f3ff442ad00232360072388
:104c4c0084f84230584b1b7813f0010f7ff43fadc2
:104c5c0094f84020554b53f82210b4f9540023f02b
:104c6c002ffd94f84030082b3ff439ad94f84030c8
:104c7c00012b3ff64aad94f841300c2b7ff449ad33
:104c8c002868436847aa04f16c019847b0f1ff3fcc
:104c9c0004d09df82431012b3ff450ad06f5ec7196
:104cac00b4f9540023f00cfd94f84030012b62d081
:104cbc000022adf8182007922868036806f5f471f5
:104ccc0098478146b0f1ff3f27d02868d0f82ca038
:104cdc00042307aa4946d047079bd3b14ff0020ad9
:104cec002868d0f82cb0534606aa4946d847b4f8e1
:104cfc004820bdf818309a4239d02868d0f820b036
:104d0c00012308224946d847079b013b0793002bf8
:104d1c00e6d1286843694946984706f50171b4f90c
:104d2c00540023f0cdfc06f50471b4f9540023f0c3
:104d3c00c7fc26e000230193009302225946b4f9e4
:104d4c0054000df01df909287ff618ab022384f8e6
:104d5c004030002323600022009213460a21b4f94c
:104d6c00540022f07dfe4ff0010afff7ffba2868cd
:104d7c0043694946984706f5fc71b4f9540023f091
:104d8c009ffc0b49b4f9540023f09afc94f8503072
:104d9c00002b3ff4daac082384f84230fff77db8df
:104dac00c22d0120842c0120c32d0120dc460200e1
:044dbc000c9902004c
:020000040000fa
:104dc0002de9f04f91b00f210a201ff0b5ff03909d
:104dd00010f0010f40f02b85039b13f0020f40f001
:104de0004a8511b0bde8f08fd9f8187007f11003ab
:104df0000793fb680d933b690e9300228df83c20ce
:104e000006238df83d302b0a43ea0523adf83e30ea
:104e10000c210da81bf076fec3439bb2b9f82220eb
:104e200012f0040f33d02a46414648461af06afa77
:104e30000490049b002b40f0638640461cf0f8f978
:104e400098f80cb04fea1b1b4fea8b030693d9f876
:104e50001cb0bbf80220002a00f05586fe89bb89f1
:104e60001e44bbf800301e445640b6b2cc4bd3f8bb
:104e700000c0bcf1000f00f04986d9f828e0c94b0a
:104e80001b68059300239a46194610460fe01a4600
:104e9000294640461bf036fe0490cae7b4f86a2063
:104ea00082422fd001331bb2194663452fd2059a97
:104eb00052f82140002cf5d094f86e200b2af1d046
:104ec00094f86f100129edd8216c09b18e45e9d114
:104ed000002ae3d0b4f86a20b242e3d1dbf8001034
:104ee000a26d9142ded1a16bfa689142dad1012123
:104ef00084f86f10c4f840e0079a204620f026fca2
:104f0000a24621e0baf1000f08bfa246cae7baf1f3
:104f1000000f7fd0fb68caf8383001218af86f1083
:104f2000caf840e0079a504620f010fcaaf86a60e0
:104f3000bbf80030aaf85830bbf80230aaf85a3053
:104f4000daf80030caf81030d9f8102093890699a1
:104f50005b1a938198f80d40d8f80870d8f804606f
:104f60009af8373013f0400f58d19af86d306ff33c
:104f700000038af86d309af86e30002b69d0012b4f
:104f800000f0b6801435069aa5eb020b1ffa8bfbd6
:104f9000abf1140292b2069214f0010207921abf0a
:104fa000abf1130b1ffa8bf2069a059214f0020f65
:104fb00003d0059a013292b20592daf81c50daf861
:104fc00020209542c0f0e580daf81810daf81400d5
:104fd000091aa5eb020ba1eb0b0b1ffa8bfbdaf8fe
:104fe0005020b51a059a002a00f0f080bbf1000f9e
:104ff00000f0e280002dc0f2d9805d45c0f0eb806a
:10500000059aabeb0202ab4500f3e580954240f315
:10501000e280d1e06ff00e0100f005bc00238af8b9
:1050200071309af8363013f0020f9ed122f07af9df
:105030008346baf86830059322f09cf9059b00fb83
:1050400003f0594ba3fb00300beb9010caf824007f
:105050008be714f0040f35d114f0100f37d114f092
:10506000020f40d00136caf85060404617f06af887
:10507000aaf8620050461ff011fd0122122150468d
:1050800005f0d0f802238af86e30002023f0dcfc13
:10509000daf87450daf87860baf872400146002005
:1050a00023f023fe049b14ea030200f03285002d56
:1050b00000f031853346d9f82810baf93400a847f2
:1050c0000221b0e30021504610f08cfddde7caf864
:1050d0004c7000220421504605f0a4f800215046ef
:1050e00010f080fdd1e70021504610f07bfdcce7a9
:1050f00014f0040fc9d114f0100f00f00e85daf887
:105100004c50af422ad114f0020fbed00136caf87b
:105110005060b8f80e30aaf86630aaf85c30404605
:1051200017f010f8aaf8620050461ff0b7fc0122f1
:105130001021504605f076f803238af86e309af86d
:10514000373013f0400f13d19af836306ff3410324
:105150008af836304ff48073049396e7caf84c709f
:1051600001220421504605f05df8caf84c508ce746
:1051700022f0d8f80546baf8684022f0fbf800fba8
:1051800004f3094aa2fb032305eb9313caf8243066
:10519000dae7a2eb050b0bf1ff3b1ffa8bfb1ee7d7
:1051a000fc2b0120f82b0120d34d621005990a46f3
:1051b000691800293ff725af14f0040f7ff465af9d
:1051c00001221021504605f02df85ee71db1002d9b
:1051d000f2db5d45f0da14f0060f11d114f0100f78
:1051e0003ff453af023b072b00f2fe80dfe813f0e1
:1051f00019002400240024002400fc002400f901ec
:1052000014f0040f08d09af8373043f002038af8fc
:1052100037304ff4006304930021504610f0e2fc55
:1052200033e7daf84c3008939f4220d103238af801
:105230006e304ff480730493daf808c0daf8103057
:10524000bceb03001ed4daf84c107a1a121a002aaa
:1052500028ddbaf86c0000f40170042801d1012a9d
:1052600017d000221021504604f0dcff0de7caf8e9
:105270004c7001220421504604f0d4ff089bcaf868
:105280004c3002e7daf80410daf80020891a0844f2
:10529000d9e70131caf84c109af86d2042f00202a9
:1052a0008af86d20daf84c200992daf80c1008918f
:1052b000a3eb010e8b422fd2daf80400daf80010cb
:1052c000411ab81a70440844002838dddaf804207e
:1052d0000a92daf80010521a0b9290422cd89af8df
:1052e0006c1001f0ef016ff345118af86c109af819
:1052f00036106ff345118af83610089a0244caf83e
:105300000c200b990b449342c0f0ff800a9b9a42f9
:10531000c0f0558400f04fbc0999781a70440028f9
:105320000adddaf804100a460a91daf80010521a77
:105330000b92904240f22084089a93422cd09af823
:105340006c1011f0100f21d011f0200f18d0099a15
:10535000a2eb0e01caf84c10089a934207d2daf871
:105360000430daf800001b1acb1acaf84c30089b3c
:10537000caf810309af8363043f080038af8363095
:105380009af86c3043f020038af86c309af86c304d
:1053900043f010038af86c30daf80c309c4500f0ca
:1053a000bc80b8f80e30baf866209a4238bfaaf826
:1053b0006630daf84c20b8f80e303b449b1a9bb2aa
:1053c000baf85c1031b92bb19af8361041f04001af
:1053d0008af83610aaf85c309af86e30042b00f088
:1053e000d780062b00f0f58014f0200f7ff44dae2f
:1053f0009af86e20a2f10803dbb2012b7ff645aece
:10540000062a3ff442ae069a002a3dd0002d40f312
:10541000f380069b2b445b4504ddabeb050b1ffac9
:105420008bf3069398f80c301b0908eb83030c935d
:10543000daf81c10daf81830069a2a440a44934223
:1054400080f069815a1a0132521b00f156811ffa0d
:1054500082f80124009443460ca802462944484699
:105460001af062fe8346069aa2eb080300949bb2f0
:105470000caadaf8141048461af056fe584480b2c6
:10548000069b834200f05081059bcbb19af86e30a9
:10549000033bdbb2022b84bfdaf81c30caf82030a1
:1054a0009af8363013f0100f40f06d819af83630cc
:1054b00043f010038af8363013f0080f00f06981ca
:1054c000079b002b3ff4e1addaf850300133059a29
:1054d000324493427ff4d9adcaf85030049b43f470
:1054e000806293b204939af8373043f004038af849
:1054f00037309af86e30023b032b00f27881dfe8f8
:1055000013f05d0166016f018601d31a09990b44fe
:10551000caf84c30caf810204ae39af8373013f032
:10552000010f1dd113f0400f06d19af836306ff3fa
:1055300041038af8363034e721f0f4fe0890baf8d7
:105540006830099321f016ff099b00fb03f34ff429
:105550007a72b3fbf2f3089a1344caf82430e4e7f2
:10556000daf84c309f427ff41caf9af86c3013f09d
:10557000040f3ff416af9af836306ff341038af800
:1055800036309af837306ff300038af8373008e77f
:10559000974204d014f0200f3ff435af75e59af828
:1055a0006c3013f0040ff5d021f0bcfe089021f010
:1055b000e1fe41f2883303fb00f34ff47a72b3fb50
:1055c000f2f3089a1344caf8303005238af86e3093
:1055d000e0e797427ff459ad0021504610f002fbfe
:1055e00053e5daf84c3001339f427ff44ead002191
:1055f000504610f0f7fa48e598f80c301b09c5eb57
:10560000830343440c932a4493b29b4528bf9b4693
:10561000daf81c10daf8183001eb0b0293425cd276
:105620005b1a03f101081ffa88f5012400942b4648
:105630000caa48461af078fd0690abeb05030094df
:105640009bb20caadaf8141048461af06dfd069bbe
:10565000034498b2abeb0803daf81420134458451e
:105660007ff412afdaf850105944caf85010caf853
:105670001c309af86e20033ad2b2022a04d8049a57
:1056800042f4007292b20492daf85420b2f1ff3f71
:105690003ff4faaea2eb0b0bcaf854b0baf8602094
:1056a00012eb0b0224d4bbf1000f3ff7edae114417
:1056b000caf850101344caf81c30daf81820934284
:1056c00006d9daf81410521ad2431344caf81c301f
:1056d0004ff0ff33caf85430d6e6012300935b46ff
:1056e0000caa48461af020fddaf81c305b44b6e7f5
:1056f0004ff0ff33caf85430c6e6681edaf81420bb
:105700009b1ac01a01230093069b0caa0144484629
:105710001af00afdb4e601230093069b0caa294463
:1057200048461af001fdabe6daf85430b3f1ff3f1a
:1057300013d09d4217d2069a5119baf86020d0189a
:10574000814204d88b4202d8431b9bb20693069b2e
:10575000aaf86030caf8545096e6caf85450069b2e
:10576000aaf8603090e6baf860201a440698411909
:1057700091427ff689ae95423ff686aeeb1a184409
:10578000aaf8600080e601221021504604f04afd8c
:1057900096e6dbb243f008038af8363021f0c2fd0a
:1057a000044621f0e7fd642303fb00f34ff47a7213
:1057b000b3fbf2f31c44caf82c4081e609238af8b3
:1057c0006e3001221121504604f02cfd5de40823c7
:1057d0008af86e309af86d3013f0010f07d054e458
:1057e000daf84c309f4208d006238af86e30012246
:1057f0001021504604f016fd47e4002210215046c7
:1058000004f010fd0021504610f0ecf93de40022b8
:105810001021504604f006fd0021504610f0e2f938
:1058200033e46ff00d010a2248461ff017f80a20f2
:1058300021f06cf9814600283ff4ceaab9f8205037
:10584000132deed9d9f81c8098f80c301b09042bc5
:105850000bd9b5eb830f0bdbb9f8223013f4007fc3
:105860003ff4c2aa6ff00e01dde76ff00d01dae739
:105870006ff00d01d7e7bd4b1b68002b3ff4b1aab9
:1058800000252b46dff8e892dff8e8a2dff8dc829b
:10589000dee021f047fda36ac01a0028a8bf102649
:1058a000ede021f03ffde36ac01a0028c0f2ed8070
:1058b00094f86e30052b00f09981102687f00102d4
:1058c0003146204604f0aefce7e021f02bfd236bcf
:1058d000c01a0028c0f2de8001221421204604f004
:1058e000a1fc0021204610f07df9a9e094f8366073
:1058f00006f001060121204617f0bef894f8363074
:1059000043f0010384f836304ff4805200212046e2
:105910001df0e2f9002e40f0938094f836306ff3da
:10592000000384f836300a2384f86e3088e021f0d2
:10593000f9fc636ac01a0028c0f2828094f86e10e5
:105940004b1e082b7ad8dfe803f0054256617969cf
:105950007979710094f87030032b28d80221002641
:1059600094f87030013384f87030a36c5b00a3644a
:105970002069e268831a9bb2904204d2606827686b
:10598000c01b03449bb2e06cc01ae064b4f85c0036
:105990000344a4f85c3022610022204604f042fc5b
:1059a000002e4dd00021204610f01cf948e00423c1
:1059b00084f8703021f0defc4ff47a7303fb00f3bf
:1059c000aafb03239b091b01a3640221c7e794f8e8
:1059d0007030022b40f2c08094f8366006f001036c
:1059e0001e46002b18bf1421002fb9d101222046da
:1059f00004f018fcd4e794f87030042b40f2ae8029
:105a0000042384f86e3011210026ede794f87030fd
:105a1000042b40f2a58014210126e5e794f87030ac
:105a2000042b40f29f8014210126dde794f87030aa
:105a3000042b40f2998014210126d5e7002e5cd179
:105a400001352db22b46d8f800209542bff4c9a9e4
:105a5000d9f8002052f82340002cf1d094f86e3091
:105a60000b2bedd094f8363013f0c0061dbf1f4647
:105a7000df091026002713f0040f7ff40aaf94f813
:105a8000363013f0080f7ff40caf94f86e30052b0e
:105a90003ff41baf002e7ff411af94f8363013f0b3
